:10000000205500201155010003490200415501000F
:10001000415501004155010041550100000000001B
:100020000000000000000000000000006D5401000E
:10003000415501000000000015540100914B0100E2
:10004000D1540100C9690200D1540100D15401000A
:10005000D1540100D1540100D1540100D154010008
:1000600091690200D1540100D1540100AF6902002E
:10007000D1540100D1540100D1540100D1540100E8
:10008000D1540100D1540100D1540100D1540100D8
:10009000D1540100D1540100D1540100D1540100C8
:1000A000D1540100D1540100D1540100D1540100B8
:1000B000D1540100D1540100D1540100D1540100A8
:1000C000D1540100D1540100D1540100D154010098
:0C00D000D1540100D1540100D1540100B2
:0400DC00FFFFFFFF24
:1000E00053B94AB9002908BF00281CBF4FF0FF319F
:1000F0004FF0FF3000F06CB9ADF1080C6DE904CEA3
:1001000000F006F8DDF804E0DDE9022304B07047F2
:100110002DE9F047089E0D4604468E46002B40F020
:1001200082808A42174646D9B2FA82F24AB1C2F1B7
:10013000200105FA02F320FA01F1974041EA030E8B
:1001400094404FEA1748230CBEFBF8FCB9B208FBF9
:100150001CEE43EA0E430CFB01F098420AD9FB184F
:100160000CF1FF3580F01681984240F21381ACF11A
:10017000020C3B441B1AA4B2B3FBF8F008FB10338B
:1001800044EA034400FB01F1A14209D93C1900F102
:10019000FF3380F00181A14240F2FE8002383C44EE
:1001A000641A40EA0C4000211EB1D4400023C6E985
:1001B0000043BDE8F08702B9FFDEB2FA82F2002AFE
:1001C0004FD1CB1B4FEA174E1FFA87F80121B3FB23
:1001D000FEFC250C0EFB1C3345EA034508FB0CF323
:1001E000AB4207D97D190CF1FF3002D2AB4200F2CD
:1001F000E7808446ED1AA3B2B5FBFEF00EFB105566
:1002000043EA054408FB00F8A04507D93C1900F172
:10021000FF3302D2A04500F2D7801846A4EB0804B1
:1002200040EA0C40C0E78B4208D9002E00F0AF80B6
:100230000021C6E900050846BDE8F087B3FA83F15E
:1002400000294BD1AB4202D3824200F2B780841A1C
:1002500065EB030301209E46002EAAD0C6E9004E9E
:10026000A7E7C2F1200C01FA02F3974020FA0CF044
:100270004FEA174E21FA0CFC1843BCFBFEF1050CAB
:100280000EFB11CC1FFA87F845EA0C4501FB08F379
:10029000AB4204FA02F409D97D1901F1FF3C80F068
:1002A0008B80AB4240F2888002393D44EB1A85B224
:1002B000B3FBFEF00EFB103345EA034500FB08F3E9
:1002C000AB4207D97D1900F1FF3C71D2AB426FD927
:1002D00002383D44EB1A40EA014178E7C1F1200CB5
:1002E0008B4022FA0CF71F4320FA0CF405FA01F3B5
:1002F0004FEA174E25FA0CF51C43230CB5FBFEF90B
:100300001FFA87F80EFB195543EA054509FB08FA61
:10031000AA4502FA01F200FA01F308D97D1909F1A0
:10032000FF3047D2AA4545D9A9F102093D44A5EBC2
:100330000A05A4B2B5FBFEF00EFB105544EA0544D5
:1003400000FB08F8A04507D93C1900F1FF352DD274
:10035000A0452BD902383C4440EA0940A4EB0804EC
:10036000A0FB02894C45C6464D4619D316D05EB156
:10037000B3EB0E0264EB050404FA0CFCCA404CEA31
:100380000202CC40C6E900240021BDE8F0873146D6
:1003900030460EE7AC46EDE6184601E74345E6D2A7
:1003A000B8EB020E69EB07050138E0E72846D3E712
:1003B00060468FE78146BAE7614677E708464BE734
:1003C000ACF1020C3D4415E702383C4426E700BF7F
:1003D000704700BFF8B515460A4A1C4656682EB14C
:1003E00001B02A46B446BDE8F040604700208DF8D1
:1003F000000068460EF0F0FB9DF80000281A2070FF
:100400000020F8BD0000002001480078704700007F
:100410000800002004490A78904201D30020704768
:10042000496801EB40107047080000202DE9F843AF
:100430001546044600F10802C81C4142DFF8A8C076
:100440001F46281A0023089EBCEB050C9B4104D2D2
:1004500040F2F551702003F0B9F8244B994204DDC5
:1004600040F2F651702003F0B1F8214B994204DAC2
:1004700040F2F751702003F0A9F81E498842A8BF46
:100480001D4903DA0028B8BF1A4900DA401821468E
:1004900002F056FD206820F07F412160E8191749DD
:1004A000C01C36B1012E0BD040F29961702003F0D0
:1004B0008DF8096809787A2998BF7A21084402E002
:1004C0000968097808446A46211D02F039FD9DF942
:1004D000000000286068C4BF401C606020F07F40BE
:1004E0006060BDE8F8830000FF7F841E0020A10744
:1004F00000E05EF80080841E00807BE17C0E00201E
:1005000070B50546202A27D019481A4C00EB831CE9
:100510000CEB420004EB8303202922D00CEB4101B9
:1005200040784C784870204601460CEB41009142DF
:1005300005704078F8D193F82620202A1ABF0CEBDA
:100540004202547083F8254020220CEB410C8CF8B9
:10055000012083F8261070BD40F2AA21702003F01C
:1005600035F893F82440407883F82400DBE7000056
:10057000FC0D00207C0E00202DE9F34F87B00446CF
:10058000002002909E48089F9E4E00EB870003903B
:1005900090F824502020E9460DF104088DF8000061
:1005A00006F5207A202D18BF0AEB871B32D000BF3A
:1005B00005EB850006EB8000011D80682268101A9B
:1005C0000002C21700EB1260001223D46089D0B180
:1005D0004889C0B9084600F0E7FC05AA04A902F062
:1005E000AFFC9DF914000028CCBF0120002000F1D1
:1005F000330104982268101A0002C21700EB12603F
:100600000012884206DB0BEB450089F80050457864
:10061000202DCDD199F8000088F80000A146202DAA
:100620001CBF794800EB871B00F0E58005EB8501D6
:1006300006EB810AD9F80420DAF804104846891A32
:100640000902CA1701EB12610AF1040709121FD44B
:100650007989002900F0CF804189002940F0CB80C2
:1006600000F0A2FC05AA04A902F06AFC9DF914009E
:100670000028CCBF0120002000F1330104983A6823
:10068000101A0002C21700EB1260001288427DDAD5
:1006900088F800509AF8100099F80C10884205D993
:1006A0000BEB45004578202DC0D1A4E09DF8040057
:1006B000D4E9002100EB800006EB8000891A8068F5
:1006C00020F07F42084420F07F40C4E90020012050
:1006D00002904B4890F82F0018B109B00020BDE8F7
:1006E000F08F0398DDF820806F4690F8245020208A
:1006F0000DF1040A8DF80000202D1CBF424800EBCC
:10070000881930D005EB850006EB8000011D80685C
:100710002268101A0002C21700EB1260001222D4E5
:100720006089D0B14889C0B9084600F03DFC05AAEF
:1007300004A902F005FC9DF914000028CCBF01209B
:10074000002000F1330104982268101A0002C21739
:1007500000EB12600012884205DB09EB45003D709A
:100760004578202DCED138788AF800002746202DF4
:100770001CBF254800EB881B3DD005EB850106EB2F
:100780008109384609F104087A6800E033E0D9F8B5
:100790000410891A0902CA1701EB126109121DD44B
:1007A000B8F80A1039B3418929BB00F0FDFB05AA4E
:1007B00004A902F0C5FB9DF914000028CCBF01205C
:1007C000002000F133010498D8F80020101A00022C
:1007D000C21700EB1260001288420CDA8AF800504F
:1007E00099F81010387B81427FF660AF0BEB450023
:1007F0004578202DC1D1029809B0BDE8F08F0000E6
:100800007C0E00207C0B0020FC0D00202DE9F04F19
:10081000044647480E4600EB8600464F90F82450A9
:10082000202083B098469246107007F52079202D3D
:1008300018BF09EB861B31D005EB850007EB800064
:10084000011D80682268101A0002C21700EB1260B6
:10085000001223D46089D0B14889C0B9084600F09D
:10086000A3FB01AA694602F06BFB9DF90400002876
:10087000CCBF0120002000F1330100982268101A3B
:100880000002C21700EB12600012884206DB0BEB7D
:1008900045008AF800504578202DCDD19AF8000007
:1008A00088F80000202D18BF09EB861A3CD005EB14
:1008B000850107EB81096168D9F804202046511AA7
:1008C0000902CA1701EB126109F1040609121BD4CF
:1008D000718949B3418939BB00F066FB01AA6946B9
:1008E00002F02EFB9DF904000028CCBF012000205F
:1008F00000F1330100983268101A0002C21700EBB1
:100900001260001288420FDA88F8005099F810003F
:10091000217B884203D803B00020BDE8F08F0AEBAA
:1009200045004578202DC2D103B00120BDE8F08FED
:100930007C0E00207C0B0020044800F47000B0F511
:10094000000F0CBF0120002070470000B1250000FF
:100950002DE9F74F4FF0000898B016460D46C346F4
:1009600002F096F80446012D18BF022D05D040F67E
:100970007C114FF0700002F029FEFF490120086051
:10098000FE498968086000200690401E0890FC49D6
:1009900006EB860001EB80031B1D09AF0FCB87E838
:1009A0000F0009A800F000FB0790F548BDF82E9055
:1009B000B0F82003ADF83400B9F1000F14BF4FF0C8
:1009C000010A4FF0000A09981290BAF1000F09D0FD
:1009D000EC4890F8300028B902F094FD002808BFD8
:1009E000012700D00027E84800221492007816461C
:1009F000012818BF032843D1E348B0F80280A8EBD0
:100A000009001490C1453BD203A8059017A8109087
:100A1000079908F103004242DFF870C3081A002367
:100A2000BCEB010173EB030104D240F2F5517020DD
:100A300002F0CCFDD6498A4204DD40F2F651702026
:100A400002F0C4FDD3498A4204DA40F2F751702023
:100A500002F0BCFDD0498842A8BFD04903DA002883
:100A6000B8BFCD4900DA4018109A059902F068FA2B
:100A70000398099920F07F400390081A20F07F42E4
:100A8000002F18BF322604D19DF83400002818BF6B
:100A90000226B4F1807F08D00998001B0002C1171C
:100AA00000EB11600012012802DA042018990BE013
:100AB00047B1B44890F8310020B19DF83400061CCD
:100AC00018BF022621460120B9F1000F02D0149B65
:100AD0001E2B02DA9DF8343013B14FF0010B401E8B
:100AE0008319A9489DF83560007815900998801AF7
:100AF00020F07F4CACEB010000024FEAE07E00EBFF
:100B00001E600012984218DB002A18BFCDF824C0DE
:100B1000099E1097002701F0B5FE301A0002C11798
:100B200000EB116000123E283EDA012D1FD0701E2E
:100B3000109920F07F4011B32CE07AB1002E04BF51
:100B4000159803280AD027B99DF83400002818BF4B
:100B50009B1E00228DF834209046C7E707BB9DF806
:100B60003400E8B100208DF834009B1EBEE7B4F1DC
:100B7000807F20D140F6F501702002F027FDB4F10E
:100B8000807F07D0211A0902CA1701EB12610912EE
:100B9000042903DD044601F07BFE0CE000290ADD98
:100BA0001BB00020BDE8F08F701E20F07F4420466F
:100BB00001F06EFE5746B4F1807F28D00998DDF829
:100BC00028C0001B8BF00103754A20F07F40ACEB7E
:100BD000040C2CF07F4C834298BFB0F5800FDFD21D
:100BE0006245DDD320460EF017F8684A0799531C7A
:100BF0000E1AB6EB930F24BFA0EB010CBCEB930FC6
:100C000010D3B24208D2101A0844461C0AE040F63B
:100C10001421702002F0DAFC62452DD2511A0844EA
:100C2000401C4642574890F8350050B32846454688
:100C30004FF0000BD846012805D0022002F070F8D2
:100C4000012002F06DF8A9452CD2A6EB05014FF06A
:100C500001034FF003024FF0020001F099FF00285A
:100C600008BF4FF00108B9F1000F35D00123A6EB02
:100C700009010322184623E040F6F421702002F017
:100C8000A5FCC14534BF40464846BBF1000F14BF28
:100C900000211E210844B042C8DB40F62721702005
:100CA00002F094FC10D90123A6EB09010322184697
:100CB00001F06EFF28B37DB1711B012303220220D6
:100CC00001F066FFE8B107E055EA090004D040F6FC
:100CD0005F11702002F07AFC0123032231460020CC
:100CE00001F056FF68B10125B8F1000F03D012984A
:100CF00009908DF834B0DFF8AC80BAF1000F0ED156
:100D000009E0022002F00CF8012002F009F81BB003
:100D10000020BDE8F08F1B4890F8310000B14FB3C0
:100D2000DFF860A09AF8300018B102F0B7FA8AF83C
:100D300030B007B3A4F1320020F07F414FF400201F
:100D4000C8F8000000230322052001F021FF78B33A
:100D50004FF08044052002F09DF81349C1F81005BA
:100D6000C1F814451149E0120860064C94F83100AE
:100D7000F0B35DE01DE021E0080500401000002018
:100D80007C0B00207C0E002012000020FF7F841EC0
:100D90000020A10700E05EF80080841E00807BE157
:100DA000FFFF3F0008F5014098F0014004F50140C5
:100DB00035E0DFF8B8A09AF8300058B32B4C94F81F
:100DC000310050B14FF40020C8F80000052001F0B8
:100DD000A7FF02F0CBFA84F831B006AC244894E8BF
:100DE0000E10C0F80413C0F80823C0F80C3300E05C
:100DF0001AE0C0F810C30AAC94E80E10C0F814133F
:100E0000C0F81823C0F81C33C0F820C31BB0012061
:100E1000BDE8F08F02F05EFA8AF8305089E740F2C0
:100E20005B31702002F0D2FB02F092FA84F831506C
:100E3000A6EB0900A0F11901002904DC40F65121BC
:100E4000702002F0C3FB03220123104601F0A0FE34
:100E500038B108488068C0F800B00748C0F800B052
:100E6000BBE740F65C21702002F0B0FB7C0E002056
:100E70007C0B0020100000200805004010B5154C28
:100E800094F83300202818BF10BD94F8322004EBEA
:100E9000820090F82410202916D0DFF83CC00CEB1B
:100EA000821303EB41035B7880F82430012380F840
:100EB000273084F82F3084F83310022000F0B2F885
:100EC000002084F82E0010BD4FF46A71702002F0EB
:100ED0007DFB00007C0E0020FC0D00202DE9F05F62
:100EE000DFF8B48098F8325008EB850090F8254080
:100EF000202C08BFBDE8F09FDFF8A0A0DFF8A0908D
:100F0000A9F5207B09EB8517072617F8140001289F
:100F10000ED0042808BF02260AD005280CBF0326DD
:100F2000062805D040F6C2014FF0700002F04EFBDB
:100F3000BAF1000F18BFAFF30080EFF3108072B664
:100F400007EB44014A7808EB850181F8252091F8E8
:100F50002620A24204BF202281F82620A8B12A46DA
:100F60002146012000F05EF804EB840031465BF876
:100F700020202046904798F8325008EB850090F8E2
:100F80002540202CBED1BDE8F09F0648002818BFA0
:100F9000AFF3008062B6E2E77C0E002000000000A4
:100FA000FC0D00200000000010B5044600680DF0A4
:100FB00033FE0146608994F90820DFF854C01044DC
:100FC000C21C88180023BCEB010173EB030104D29F
:100FD00040F2F551702002F0F9FA0E498A4204DD20
:100FE00040F2F651702002F0F1FA0B498A4204DA1D
:100FF00040F2F751702002F0E9FA08498842A8BF90
:10100000074903DA0028B4BF044910BD401810BDD9
:10101000FF7F841E0020A10700E05EF80080841E90
:1010200000807BE1DFF854C010B500230CEB821C7C
:1010300007281ED2DFE800F00505050504040400BA
:1010400001230CF81100002B08BF10BD0C4800EB69
:10105000820292F8260020280EBF82F825100CEBA1
:101060004000417020200CEB4103587082F826109C
:1010700010BD4FF42071702002F0A8FAFC0D002082
:101080007C0E00202DE9F34F83B05E48049900EBFD
:101090008100019090F8244003982546012818BF4C
:1010A000022805D040F698214FF0700002F08EFA29
:1010B0000027202D4CD053480091002690F8351081
:1010C000002904BF0068867801F0DCFBDFF83CA152
:1010D00004EB84010AEB8101DFF82C914A688968EE
:1010E000121A091A22F07F4221F07F41964298BFDE
:1010F000B2F5800F01D2894528D2454A009902EB0A
:10110000811B22460BEB42014C78202C16D004EBBD
:1011100084010AEB810CDCF80480DCF808C0A8EB41
:10112000000828F07F48ACEB000121F07F414645E4
:1011300098BFB8F5800FE4D28945E2D3202A05D0C4
:1011400020210420009BFFF7DBF90446AC4217D1B5
:101150003048002818BFAFF3008001F093FB294C02
:1011600094F8341020290FD0226821699278024423
:10117000511A0902CA1701EB12610912002903DD95
:1011800005B00020BDE8F08F202D0DD02A46039930
:10119000FFF7DEFB58B3019880F8277084F83450CD
:1011A00005B00120BDE8F08F94F8300018B102F0CE
:1011B00075F884F8307094F8310050B116494FF446
:1011C00000200860052001F0ABFD02F0CFF884F8A4
:1011D0003170042001F0A4FD01F0FEFD202084F810
:1011E00034000E48806807600D480760D8E72A463B
:1011F00020210420049BFFF783F905B00020BDE8FF
:10120000F08F00007C0E0020FFFF3F007C0B0020D1
:10121000FC0D00200000000008F501401000002037
:10122000080500402DE9F04F764E074687B096F846
:1012300033008A4620285AD096F8330006F110046D
:1012400000EB8000A6F5407909EB800820208DF89E
:10125000000096F8320003AA06EB800001A990F87E
:101260002450706902907068384401F069FE9DF95D
:101270000C00002802DD0198401C0190D8F80800FD
:101280000199642F084437D35F4B0022DB1B72EBBC
:10129000020131D3D8F80410411A21F07F41B1F591
:1012A000800F29D220F07F406060564884F80CA05F
:1012B00090F83200EA46202D1CBF544901EB801BF8
:1012C0004AD005EB850009EB80086068D8F8042057
:1012D0002146101A0002C21700EB126008F1040642
:1012E000001226D4708988B3488948B134E040F6AA
:1012F0006531702002F06AF907B00120BDE8F08F77
:101300002046FFF751FE05AA04A901F019FE9DF938
:1013100014000028CCBF0120002000F13301049804
:101320003268101A0002C21700EB126000128842E5
:1013300012DA8AF8005098F81010207B814206D803
:101340000298606007B00320BDE8F08F04E00BEB6B
:1013500045004578202DB4D12A4DE868B0F1FF3F13
:1013600016D001F08FFAE968081A0002C11700EBE5
:1013700011600012022805DC0298606007B00220AC
:10138000BDE8F08F052001F0CBFC4FF0FF30E860A6
:1013900095F832309DF800202021202A13BF052027
:1013A00005EB830090F82400FFF7AAF895F83220A7
:1013B000164901EB821195F8332001EB4201487088
:1013C000686838446860012085F82F00687F01282C
:1013D0000AD1286869694078012811D880B1081AB3
:1013E00020F07F4001F0EEFA9DF80000202803D0A5
:1013F0000748407802F0BAF907B00020BDE8F08F46
:101400000120ECE77C0E0020FF1FA107FC0D00204F
:10141000100000200246DFF854C010B50023BCEBDA
:101420000202084473EB030204D240F2F55170202B
:1014300002F0CCF80E4A914204DD40F2F6517020E1
:1014400002F0C4F80B4A914204DA40F2F7517020DE
:1014500002F0BCF808498842A8BF084903DA00280E
:10146000B4BF054910BD401810BD0000FF7F841EA9
:101470000020A10700E05EF80080841E00807BE170
:10148000104A0B1A02F1010CB3EB9C0F3CBF18463B
:10149000704710B5441AB4EB9C0F3CBF184610BD02
:1014A0009A4203D2101A0844401C10BDA24204D232
:1014B000511A0844401C404210BD40F6F4217020EF
:1014C00002F084F8FF7F841E0B4910B591F83300B9
:1014D00020280CD091F8330091F83310074A01EB23
:1014E000810152F82120BDE810400421104740F648
:1014F000A601702002F06AF87C0E00207C0B002010
:1015000070B5644E6449012506F5407408287CD204
:10151000DFE800F0045E8FA2BA45A7AC94F8300073
:1015200018B901F0D7FE84F83050608B10B101F08B
:10153000E9FF88B1FFF7A2FC84F82D50E168B1F112
:10154000FF3F05D001230322052001F021FB40B11C
:10155000607F01280AD014E040F65E01702002F09E
:1015600035F840F66301702002F030F820686169B8
:101570004078012811D880B1081A20F07F4001F08E
:1015800021FA94F8330094F8331001EB810156F8F6
:101590002120BDE87040012110470120ECE7FFF752
:1015A0006DFC4FF0FF30E06094F82D0058B194F8D6
:1015B000330094F8331001EB810156F82120BDE887
:1015C00070400621104740F67301702001F0FEFFC5
:1015D000FFF754FC84F82C5001F094FF18B194F8F4
:1015E000300028B108E040F68201702001F0EEFFE3
:1015F00001F070FE84F8305094F8310068B127494A
:101600004FF400200860052000E03DE001F088FB79
:1016100001F0ACFE002084F8310094F8330094F817
:10162000331001EB810156F82120BDE87040002104
:10163000104701F01BFC608B10B101F063FF30B16B
:1016400017480078032808BF84F8215070BD40F681
:101650008C01702001F0BAFF1248056088680560AF
:1016600070BD0878BDE8704002F080B8FFF706FC56
:1016700094F8330094F8331001EB810156F82120DF
:10168000BDE870400521104740F69E01702001F032
:101690009DFF00007C0B00201000002008F5014099
:1016A0001200002008050040034810B540780DF0F6
:1016B000B3FA80B210BD0000120000202DE9F34FF4
:1016C000FE4895B088460068FD4CC005C00D0ED0A0
:1016D000103840B20028B8BF00F00F0000F1E02041
:1016E000ACBF90F8000490F8140D40090DD098F8A4
:1016F00000004FF0000B002818BF012818D040F25E
:101700004C714FF0700001F061FF94F833004FF01E
:10171000010B202807D098F8000048B14FF4E96188
:10172000702001F053FF40F24571702001F04EFF30
:10173000E44D25B1002140F24F70AFF300801598C1
:10174000E14900EB800001EB80004FF001090190BE
:1017500025B1002140F25770AFF30080B9F1000FBE
:101760000AD000BF94F832604FF0000A84F82FA02E
:10177000BBF1000F07D02EE0D448002818BFAFF30C
:10178000008062B6EEE73746012020EA0706D0481F
:10179000402200EB871100EB861002F069F825B1BA
:1017A000002140F2B950AFF3008004EB870104EB55
:1017B0008600496A416225B1002140F2BD50AFF375
:1017C000008025B1002140F26170AFF3008094F8F1
:1017D0002F000028BCD125B1002140F26B70AFF37F
:1017E000008001F04FF8074602A8089098F8000022
:1017F000002898F80B008DF8150098F80A108DF85D
:101800001410B8F80810ADF812100090D8F8043091
:101810005DD000220898FEF709FE069720680FAAFF
:1018200009A990F80390BDF8120001F089FB94F823
:101830003300202851D06069484420F07F4000BF29
:10184000DDE90221891A0290084420F07F400390CC
:1018500031460898FEF790FE98F80B000090B946C4
:10186000B8F8081010A8D8F80430D8F80C20FEF703
:10187000DDFD0298039AA0EB090020F07F40A2EB67
:101880000902119922F07F42B0F5800F01D29142F6
:1018900009D2DDE90221891A781827F07F4220F069
:1018A0007F40CDE9022025B1002140F27270AFF3F4
:1018B0000080874A3946DDF8549002EB861702A86B
:1018C00017F81920012A18BF022A1DD05CE0D8F8A9
:1018D0000C200898FEF7AAFDE5E70698484400F1B9
:1018E0000409BDF8120028B101F00CFE002808BF61
:1018F00009F13209774841780998814284BF081A72
:10190000814429F07F409BE72268DDF80CC0DFF8B6
:10191000C8A19378029A521A22F07F42ACEB0101DF
:1019200021F07F41934298BFB2F5800F64D28A457F
:1019300062D34FF0010A10AB0FAA3146FEF766FFE3
:10194000002861D09DF83C109DF8402033468A4223
:101950005ED00520FEF7D4FD07EB490148709DF8E5
:101960003C00202803BF04EB860080F8249080F818
:1019700027A007EB400018BF80F801903246494687
:101980005FF00300FFF74EFB04EB860090F8277032
:1019900025B1002140F27970AFF300804F48002854
:1019A00018BFAFF30080EFF3108972B625B10021A4
:1019B00040F27F70AFF3008094F82F0000287FF48E
:1019C000C7AE25B1002140F28770AFF300800DF162
:1019D000040EBAF1000F9EE80F1000F1040080E839
:1019E0000E1041D025B1002140F29470AFF3008079
:1019F000BBF1000F2BD115E0324649460420FFF71A
:101A000011FB4FF0010ABFE7324649460420B9E70F
:101A1000202919BF07EB4100407804EB860090F8BD
:101A2000240099E79FB194F8330020280FD125B105
:101A3000002140F29970AFF3008031460220FFF799
:101A400021FB20B998F80000B8B301285DD025B17A
:101A5000002140F2B670AFF3008084F832600120BC
:101A600084F82F004FF0010A25B1002140F2BF7029
:101A7000AFF30080B9F1000F50D025B1002140F242
:101A8000C370AFF30080BAF1000F11D094F83200A8
:101A900004EB800090F82500202809D025B1002112
:101AA00040F2CA70AFF300800D48407801F05EFE4E
:101AB000D5B1002140F2CF7014E019E004ED00E050
:101AC0007C0E0020000000007C0B002000000000C5
:101AD000FC0D002012000020FFFF3F00000000006E
:101AE00010000020AFF3008017B05046BDE8F08F23
:101AF00025B1002140F2A170AFF3008094F83220AC
:101B000004201599FFF78EFAACE7002D3FF420AEC4
:101B1000002140F2AC70AFF3008019E603480028C2
:101B200018BFAFF3008062B6A7E700000000000016
:101B30002DE9F04F0646E44895B00068C005C00D99
:101B400011D0103840B20028B8BF00F00F0000F1EB
:101B5000E020ACBF90F8000490F8140D400908BFD5
:101B60004FF0010B01D04FF0000B307800284FF000
:101B700000001CBF15B0BDE8F08FDFF85083D44DD6
:101B80004FF00009CDF83000B8F1000F04D000216B
:101B900040F24460AFF3008095F8327085F82F90E2
:101BA0004FF0000AB8F1000F04D0002140F2496064
:101BB000AFF30080BBF1000F21D13C46012020EAA9
:101BC0000407C448402200EB841100EB871001F0A9
:101BD0004FFEB8F1000F04D0002140F2B950AFF32E
:101BE000008005EB840105EB8700496A4162B8F18A
:101BF000000F04D0002140F2BD50AFF30080B8F1D7
:101C0000000F04D0002140F25160AFF3008000F0DB
:101C100039FE044602A8069030780028F07A8DF844
:101C20001500B17A8DF814103189ADF812100090BA
:101C3000736817D000220698FEF7F8FB0194286815
:101C400010AA0FA9C0780090BDF8120001F078F931
:101C500095F8330020280AD069690098084420F0DC
:101C60007F401FE0F2680698FEF7E0FB48E0DDE900
:101C700000100844001D0790BDF8120028B101F0C3
:101C800041FC10B907983230079093480F9940787B
:101C9000884298BF079803D9411A079808440790CB
:101CA00020F07F40DDE90221891A0290084420F0EB
:101CB0007F40039039460698FEF75EFC0994F07A5F
:101CC0000090318910A87368F268FEF7AFFB099B9A
:101CD0000298039AC01AD21A20F07F40119922F07C
:101CE0007F42B0F5800F01D2914209D2DDE9022195
:101CF000891A601824F07F4220F07F40CDE902204D
:101D0000B8F1000F04D0002140F25760AFF300801B
:101D100095F83300202814D068690299091A09023D
:101D2000CA1701EB126109120BD5DDE90221891AEC
:101D300020F07F42084420F07F40CDE902204FF0A0
:101D4000010AB8F1000F09D0002140F26160AFF341
:101D50000080002140F26760AFF300800299039A8F
:101D6000091B121B5D4821F07F4122F07F42B1F533
:101D7000800F05D2904203D3BBF1000F0AD103E0DC
:101D8000BBF1000F37D095E0394602A8FEF7F4FB0F
:101D90004AEA000ABAF1000F21D002980CF03CFF89
:101DA000BDF812109DF910204D4C1144C91C421869
:101DB0004FF0000C201A7CEB090044D349488142C3
:101DC0005DDC4042814262DB601C8242A8BF464823
:101DD00003DA002AB8BF454800DA1218F2604FF063
:101DE00001000C90B8F1000F64D0002140F27A603D
:101DF000AFF300805EE02868274608AAC478BDF8E3
:101E0000120007A901F09CF895F8330020281FD094
:101E10006869204420F07F40DDE90221891A0144ED
:101E200021F07F41CDE902010CF0F6FEBDF8122051
:101E30009DF910102A4C1144C91C42180023201A85
:101E400073EB090018D240F2F551702001F0BEFB8F
:101E50003819041DBDF8120020B101F053FB002811
:101E600008BF32341C4807994078884284BF401A22
:101E7000044424F07F40CFE71A48814204DD40F259
:101E8000F651702001F0A2FB1948814204DA40F2B9
:101E9000F751702001F09AFB14488242A8BF124803
:101EA00003DA002AB8BF114800DA12184FF0010017
:101EB000F2600C9095F82F0000287FF465AE0C9826
:101EC00015B0BDE8F08F000004ED00E00000000058
:101ED0007C0E0020FC0D002012000020FFFF3F00C0
:101EE000FF7F841E0020A10700807BE10080841E0C
:101EF00000E05EF82DE9F14F804D8CB095F832008E
:101F00000020099001207E4C4FF00008A5F18007C9
:101F10008346089024B1002140F2DE70AFF30080C8
:101F2000089890B385F82F8024B1002140F2E37027
:101F3000AFF3008095F8329040222BEA090607EBB8
:101F4000861007EB8911824601F092FC24B1002132
:101F500040F2B950AFF3008005EB860005EB890134
:101F60000090496A416224B1002140F2BD50AFF3B4
:101F7000008095F82F0080B1002C1CBF002140F29A
:101F8000E970C7D0AFF30080C4E7FFE75D480028E1
:101F900018BFAFF3008062B6C4E724B1002140F25D
:101FA000ED70AFF300800C981AF81000032878D178
:101FB000DDF80090CDF818900C9999F8240088422B
:101FC00014BF4FF0000A4FF0010A09F1240C8646B5
:101FD000202207EB861303E0024603EB4200407821
:101FE000884202D020280AD0F6E7202807D086456C
:101FF00007D103EB4E0040788CF8000007E0404624
:102000000CE003EB400003EB42014078487024B140
:10201000002140F23E50AFF30080584610EA0A0F0C
:1020200018BF89F827B0E0B324B1002140F2F27064
:10203000AFF30080324601200C99FEF7F3FF0698BB
:1020400090F8279024B1002140F2FD70AFF300809A
:102050002D48002818BFAFF30080EFF3108072B650
:10206000089024B1002140F60200AFF3008095F8FB
:102070002F0038B1002C1CBF002140F606003FF4B1
:1020800049AF7FE7B9F1000F08D095F83300202859
:1020900004D131460220FEF7F5FFF8B134B100213A
:1020A00000E009E040F61A00AFF3008085F83260E6
:1020B00085F82FB00120099024B1002140F62300BB
:1020C000AFF30080089888B124B1002140F62700C2
:1020D000AFF3008009980DB0BDE8F08F002CF1D06F
:1020E000002140F61500AFF30080E6E70548002820
:1020F00018BFAFF3008062B6E6E700007C0E002058
:1021000000000000000000000000000010B52028C2
:1021100011D20E4991F83230A1F1800202EB831CFA
:102120001CF810303BB191F8323002EB831212F8F8
:102130001020012A01D0002010BD91F83220014664
:102140000020FEF76FFF012010BD00007C0E002074
:102150002DE9F05F7E4E804696F83200A6F18007AA
:1021600007EB801010F81800002865D096F8329020
:10217000784D25B1002140F6B330AFF3008007EB76
:10218000891414F81800012818D0C0B204281CBF04
:102190000528062855D02DB14FF0000140F6BF307C
:1021A000AFF3008001F034FB25B1002140F6C330CD
:1021B000AFF3008014F818000128E6D1012425B1FE
:1021C000002140F6CA30AFF30080A4B3002086F8A7
:1021D0002F0025B1002140F6CF30AFF3008096F8F4
:1021E00032B0012020EA0B0907EB8B1107EB8910B5
:1021F000402201F03DFB25B1002140F2B950AFF380
:10220000008006EB8B0006EB890A406ACAF82400BE
:1022100025B1002140F2BD50AFF3008096F82F00A9
:10222000E0B1002D1CBF002140F6D530C7D000BF63
:10223000AFF30080C3E70AE040F6AA31702001F056
:10224000C5F94A4641460120FEF7ECFEACE742489C
:10225000002818BFAFF3008062B6B7E725B10021B0
:1022600040F6D930AFF300809AF825300AF1250105
:1022700040461C464FF0200B07EB89120AF1260A54
:1022800004E0A34602EB4B0C9CF80140844202D0D0
:10229000202C2BD0F5E7202C28D0A34204D102EB30
:1022A00043004078087005E002EB440002EB4B016C
:1022B00040784870BAF1000F11D025B1002140F2EA
:1022C0003650AFF300809AF80000A04207D125B144
:1022D000002140F23950AFF300808AF800B05DB1C0
:1022E000002140F23E50AFF3008000E025B1002114
:1022F00040F6DD30AFF300801848002818BFAFF378
:102300000080EFF3108472B696F82F0038B1002DDC
:102310001CBF002140F6E3303FF451AF88E786F858
:102320003290012086F82F0054B1002D08BFBDE87F
:10233000F09F00214FF43F60AFF30080BDE8F09FB5
:102340000548002818BFAFF3008062B6EDE7000033
:102350007C0E0020000000000000000000000000D3
:1023600003460E4810B590F832200024803800EB68
:10237000821000BF10F8141029B1611CCCB2202CBF
:10238000F8D3202010BD064904EB840041F820302A
:1023900021460120FEF746FE204610BD7C0E00209F
:1023A0007C0B00202DE9F04100F06CFA054600F0AE
:1023B00013FD444CE068B0F1FF3F1CBF4FF0FF300D
:1023C000E06094F83500C8B9D4E90401081A0002A5
:1023D000C11700EB116000124FF40C710CF049FCB6
:1023E00061690144681A0002C11700EB1160001214
:1023F00004D440F24D41702001F0E8F8607F48B10C
:1024000000F04CFB94F82E0050B140F25E41702079
:1024100001F0DCF8E81C20F07F4000F039FAF1E729
:10242000012784F82E7094F83300202826D094F8E1
:102430003380202084F8330084F83400002684F8A8
:102440002C6084F82D60204866600078022816BF52
:1024500003280120002084F8200094F832504FF027
:1024600001002946FEF70EFE0028F8D0174800EBC1
:10247000851010F81800022805D009E040F26141EB
:10248000702001F0A3F82A4641460620FEF7CAFD57
:1024900084F82F7004EB850090F82500202803D0E5
:1024A0000B48407801F062F994F82000002808BF3A
:1024B000BDE8F08100F0DAFC84F8206084F8216047
:1024C000BDE8F0817C0E002012000020FC0D0020F1
:1024D0001000002030B5304C83B094F83310202920
:1024E00008D0E168B1F1FF3F09D040F6D12170205A
:1024F00001F06CF84FF42D61702001F067F8A168CD
:10250000DFF898C00B180022BCEB010172EB02014E
:1025100004D240F2F551702001F058F82049884269
:1025200004DD40F2F651702001F050F81D49884258
:1025300004DA40F2F751702001F048F81A4883425B
:10254000A8BF1A4803DA002BB8BF174800DA1B18D7
:10255000184601AA694600F0F3FC9DF904000F2813
:10256000CCBF012000200099084420F07F41E160A9
:1025700094F82D00002804BF03B030BD01230322CE
:10258000052000F005FB00281CBF03B030BD40F65D
:10259000D921702001F01AF87C0E0020FF7F841EE4
:1025A0000020A10700E05EF80080841E00807BE12F
:1025B00070B5224C202084F8240084F8250084F88B
:1025C0002600002584F8275084F8325084F8330020
:1025D000691E6560E16084F82C5084F82D5084F801
:1025E000205084F8215084F8340084F83050144886
:1025F00084F8315084F83550057045704580FEF7F9
:102600009BF900280CBF0F480F4820600F4810218D
:10261000491E857000F8045FFAD1012084F82E006D
:102620000B4CFF2020700B4801F082F8607001F025
:10263000DDF8A060BDE8704000F046BC7C0E0020D4
:1026400012000020262401002A240100FA0D002097
:1026500010000020DD0E000070B50546012000FAD4
:1026600005F40E46002A08BF08480CD0002000F0F0
:1026700011FCE90001F1804101F5F831C1F81005C4
:10268000C1F814650248046070BD000008F50140FF
:1026900004F501402DE9F041244CD4F804034FF037
:1026A000000510F4803F4FF400664FF0E0271CBF98
:1026B000D4F8400100280BD04FF48030C4F8080350
:1026C000C4F84051C7F880624FF00400FEF718FFCD
:1026D000D4F8040310F4003F1CBFD4F844010028D0
:1026E0000BD04FF40030C4F80803C4F84451C7F8C5
:1026F00080624FF00500FEF703FFD4F8040310F4E6
:10270000802F1ABFD4F848010028BDE8F0814FF4AB
:102710008020C4F80803C4F84851C7F88062BDE8B7
:10272000F0414FF00600FEF7EBBE000000B00040A5
:102730002DE9F0413A4D287804286CD0E81C01229C
:10274000017859B1012908BF6A7002D0697800295F
:102750005CD002210170407800F0E2FA314CD4F8EC
:1027600004034FF0000810F4002F4FF480764FF070
:10277000E0271CBFD4F84C01002808D04FF003001C
:1027800000F0CEFAC7F880620320FEF7B9FED4F855
:10279000040310F4802F1CBFD4F84801002808D08F
:1027A0004FF0020000F0BCFAC7F880620220FEF78A
:1027B000A7FED4F8040310F4003F1CBFD4F8440172
:1027C000002808D04FF0010000F0AAFAC7F8806294
:1027D0000120FEF795FED4F8040310F4803F1ABFE1
:1027E000D4F840010028BDE8F0814FF0000000F06F
:1027F00097FAC7F8806204202870C5F80880C4F8EA
:102800000082BDE8F0410020FEF77ABE40F272314E
:102810006C2000F0DBFEBDE8F0410720FEF770BE43
:102820001C00002000800040012213024FF0E02134
:102830000020C1F8803101F5C071BFF34F8FBFF3A5
:102840006F8FC1F800310C494A60431EC1F808334C
:102850000A4B1860C1F840011B1D1860C1F8440103
:102860001B1D1860C1F848011B1D1860C1F84C0100
:102870000A6103494870704700800040408500406D
:102880001C000020014800687047000004B50040AB
:102890002DE9F05F414E0446F71E96F800C0F86837
:1028A000BCF1010F04BFA042BDE8F09F4FF04041D2
:1028B0003B4A11603B496FF48023C1F808333A4A20
:1028C0004FF00005BCF1000F57D06FF4A023C1F802
:1028D00048331560C1F84451D1F848214FF0E02940
:1028E0004FF00108002A04BF4FF40062C9F88022AB
:1028F0004FF48033C1F80833C1F84833C1F8405170
:102900002A4AD2F800A0A4EB0A0A2AF07F4BBBF1B6
:10291000020F3CD34FF0020ABBF5800F37D2C1F84B
:102920004045C1F84433BCF1000F05D01168411A8D
:1029300021F07F410229F9D3C7F808803D70FFF7E5
:1029400073FF1B480560001DC0F800A01949042052
:1029500008601949C1F80C80BA68C1F800228101E9
:10296000C9F88012C9F80011144A41071160FC60CF
:10297000707086F80080BDE8F09FC1F84833104BB6
:102980001D60C1F840511560C1F84451A4E7C1F879
:10299000405540F2A5116C2000F018FE1F000020E9
:1029A00008F5014000B0004044B5004004B50040C7
:1029B00004850040108500400080004004F501407F
:1029C00040B500402DE9F0412B4CE168814214BF35
:1029D00001220022DFF8A4C09CF80070022F02D070
:1029E000002A38D003E0002A08BFBDE8F0816278F1
:1029F00082B3234B4FF080421A60224B9513C3F8E9
:102A00000853C3F848530026C3F840611E4AD2F861
:102A10000080A0EB080828F07F48B8F1020F24D30B
:102A2000B8F5800F21D2C3F84005C3F844532FB145
:102A30001368CB1A23F07F43022BF9D3134B0221E7
:102A40004A071A60E06004208CF801008CF800103E
:102A5000BDE8F08104E040F2B3116C2000F0B6FD57
:102A600040F2B7116C2000F0B1FDC3F8406540F2B0
:102A7000C3116C2000F0AAFD1C0000201F000020E4
:102A800008F5014000B0004004B5004004F50140E5
:102A90000148C068704700001C0000202DE9F0418B
:102AA00033486FF48024C0F80843DFF8C8C0324AC6
:102AB00000219CF8003063B16FF4A024C0F84843B3
:102AC0001160C0F8441100BFD0F84801012280B95C
:102AD00009E0C0F84843294C2160C0F8401111605A
:102AE000C0F84411F0E74FF0E0244FF40060C4F860
:102AF0008002022B04D040F2CF116C2000F066FD62
:102B00001F4E30681F4CC01C20F07F40E3681E4DF4
:102B100098420BD03768DF1B27F07F47042F05D37F
:102B2000B7F5800F02D2FFF7B3FE1BE03068181A2A
:102B300020F07F40022813D3B0F5800F10D2134B42
:102B40004FF080401860A26021706A60EA60400027
:102B5000191F086004208CF801008CF8002001E0A7
:102B6000A2602170A068C5F80002BDE8F0810000F5
:102B700000B000401F00002044B5004040B50040B8
:102B800004B500401C0000200080004008F5014012
:102B90002DE9F047DFF874C101274FF000089CF8D9
:102BA00000509CF801C007287ED2DFE800F0040442
:102BB00004046A6A6A00564CE668B6F1807F04BF76
:102BC0006478002C02D0022D05D03CE040F20221B6
:102BD0006C2000F0FBFC4FEA8C0404F18046ACF161
:102BE00004042406A40D04F1804906F5004609F505
:102BF00030490024012D02D0022D11D020E0BCF17B
:102C0000040F05D2D6F840A1BAF1000F18D104E0A4
:102C1000D9F840A1BAF1000F12D14FF000440FE0F3
:102C2000BCF1040F05D2D6F840A1BAF1000F07D1CC
:102C300004E0D9F840A1BAF1000F01D144F080447A
:102C400014F0804FD5D1334C00F1100C07FA0CFC76
:102C5000C4F808C38000204452B10764D0F840652E
:102C60008D1B25F07F45AA4298BFB5F5800F43D252
:102C7000C0F84015012B08BFC4F804C30120BDE80B
:102C8000F08735B1844504D140F229216C2000F051
:102C90009DFC001FC0B2012B0CBF0124002403289F
:102CA00006D340F2031100E02BE06C2000F08EFC14
:102CB000DFF864C000F1100307FA03F3CCF808331F
:102CC000CCF8483380006044C0F840814AB1134DCD
:102CD0002E688D1B25F07F45AA4298BFB5F5800F61
:102CE0000AD2C0F84015002C18BFCCF80433CCF839
:102CF00044330120BDE8F087C0F840850020BDE8DE
:102D0000F08740F22E216C2000F060FC1F000020B4
:102D10001C0000200080004000B0004004B50040CE
:102D2000F8B501270024072843D2DFE800F00404A7
:102D3000040416161600214A00F1100107FA01F1E9
:102D4000C2F8081381001144C1F84045C1F8404160
:102D50001B4951F820000090F8BD1A4D011FCEB25A
:102D6000297879B16A7882420CD1174A4FF04040F5
:102D70001060012908BFFFF757FD2C7013494FF071
:102D80008070C86006F1100007FA00F11048C0F822
:102D90000813C0F84813B00000F1804000F530403F
:102DA000C0F84045C0F840410A4850F8260000905D
:102DB000F8BD40F29B216C2000F008FC0080004030
:102DC000408100401F00002008F501401C00002049
:102DD00000B0004040B100401E496FF48023C1F8AC
:102DE00008331D481D4A90F800C00020BCF1000FB8
:102DF0000AD06FF4A023C1F848331060C1F8440131
:102E0000D1F8481181B909E0C1F84833144B186072
:102E1000C1F840011060C1F84401F1E74FF0E02231
:102E20004FF40061C2F880120E494FF0FF32C1F832
:102E300008230D4A1060C1F84001121D1060C1F84E
:102E40004401121D1060C1F84801121D1060C1F844
:102E50004C01704700B000401F00002044B5004006
:102E600040B500400080004040850040084890F98F
:102E700002000028B8BF704700F01F01012202FACB
:102E800001F14009800000F1E020C0F80012704715
:102E90001C00002010B507280DD2DFE800F0040464
:102EA000040406060600064902E0001F0549C0B2F8
:102EB00001EB800010BD40F252216C2000F086FB37
:102EC0004081004040B1004070B519480024042101
:102ED0000470C01E01708905C160FFF7A5FC0125C3
:102EE0004FF0E02CEB02CCF88031BFF34F8FBFF3F3
:102EF0006F8FCCF880320F4A556095600E4801689C
:102F00000029FCD1481EC2F80803C2F848030B4848
:102F10000460C2F84041001D0460C2F84441001D35
:102F20000460C2F84841CCF80031156070BD000063
:102F30001F00002000B0004004B5004040B5004034
:102F4000430B48F2376C03FB0CF31B0C4FEA432C8A
:102F5000C1F800C0DFF838C003FB0C030D484CF289
:102F6000F72C5843400D10FB0CFC0CEB432303F5EE
:102F700080735B1213700B681844086010781F2868
:102F800018BF7047002010700868401C0860704728
:102F9000F7C2FFFF6F0C01002DE9F0414FF4807183
:102FA0008D0528460BF089FE80464FF48271284635
:102FB0000BF083FE00260746B8F1000F0AD001206F
:102FC000C5F80803074C207920B12671A06908B123
:102FD0008047A6610FB1C5F804614046BDE8F041E5
:102FE00000F048B82C00002010B500F073F900F094
:102FF00089FA022308495A0730B1084803600120C2
:1030000010610320487203E04B720120C2F80403F0
:103010000020C87110BD00002C000020340C0040BE
:1030200070B5134CA079F0B1012803D0E179401EAE
:10303000814218DA00F066FA054600F037FBA17904
:10304000012902D9E179491CE1710DB1616900E002
:103050002169411A022902DA11F1020F07DC0DB1D0
:10306000606100E02061BDE87040FFF7BDBF70BD4A
:103070002C0000202DE9F04706464FF080454FF424
:10308000867128460BF019FE81464FF48871284658
:103090000BF013FE224C824694F8008004F10800E5
:1030A0000BF07EFE10B14FF4C47115E01D480127EE
:1030B0003EB1617A022904D10321617202210160CB
:1030C0002F610026B9F1000F0DD0C5F80C61617AAF
:1030D000032904D040F29F116D2000F077FA0660BA
:1030E000677200F0DBF8BAF1000F07D0C5F8106185
:1030F000607A012801D1FFF793FF6F61B8F1000FEB
:1031000007D02670607A012801D1FFF76DFF00F02B
:10311000C5F8BDE8F047024808300BF058BE000083
:103120002C000020340C00402DE9F05FDFF86091A6
:10313000017843788278002489F80A1089F80530EC
:1031400089F806200646274689F807404FF0804A4E
:10315000052925D2DFE801F015030510130001242D
:103160000FE000F0B7F85446012120460BF0AAFD0D
:103170000028F9D0022404E04FF4003401E04FF4B9
:1031800040340BF0CBFD80B100F0D6F904F003051C
:10319000A8420AD128460BF0B1FD0028FAD059E028
:1031A00040F27A216D2000F011FA4FF001085546E7
:1031B000CAF80C80CAF80471CAF818450BF012FE60
:1031C00040B90BF019FE28B90BF020FE10B90BF036
:1031D00031FE38B14FF08050D0F844022D49C0F391
:1031E000423008602B491031C1F800800221C5F837
:1031F0000413C5F80880DFF8A0B0DBF80010C9435D
:1032000041F30018DBF8001041F01001CBF800107A
:1032100008F1010802E000BF00F0FAFA4FF48271F1
:1032200028460BF04AFD0028F6D004F0030420469F
:103230000BF064FD0028FAD0B8F1000F05D1DBF8DF
:10324000001021F01001CBF800100221C5F808137E
:10325000C5F8047199F806004C4670B1307860B931
:1032600000F050F9054600F021FA6FF0004215B168
:10327000C4E9042001E0C4E90402012150460BF036
:1032800021FD08B100F038F96772BDE8F09F000039
:103290002C0000203C05004010ED00E010B5EFF3DD
:1032A000108472B60A48417829B14178491E4170AC
:1032B000417829B108E040F201116D2000F086F953
:1032C000807808B900F02CF9002C00D162B610BD4E
:1032D0002C00002010B5EFF3108472B60648417838
:1032E000491C41704078012801D10BF002FD002CEF
:1032F00000D162B610BD00002C000020054810B5BA
:10330000C17821B100210171C170FFF7C7FF002012
:1033100010BD00002C00002070B50C4CE17861B9A4
:103320000125E570A061FFF7D5FF00F0EBF830B1A3
:10333000A06910B180470020A061002070BD4FF04F
:1033400080402571C0F80453F7E700002C000020EE
:10335000EFF3108072B604498A78521C8A700028F4
:1033600000D162B6704700002C00002010B5EFF3CA
:10337000108472B60A48817829B18178491E81701B
:10338000417829B108E040F225116D2000F01EF9C6
:10339000807808B900F0C4F8002C00D162B610BDE6
:1033A0002C0000202DE9F04104006FF015003BD007
:1033B0002178042938D80029617837D0002933D101
:1033C000A178002930D100200BF042FC00200BF046
:1033D00032FC4FF080484FF0FF31C8F80813002549
:1033E000C8F80051C8F80451C8F80C51C8F8105179
:1033F000134E7570A088B0810BF072FC012708B1E4
:10340000F7707770012140460BF05CFC08B100F0CA
:1034100073F82046FFF788FE00200BF00CFC4FF0FD
:10342000E0212846C1F80071BDE8F0810029FBD0F9
:103430002029F9D8A1782129F6D80129C3D1F3E7A9
:103440002C00002001488089704700002C000020DB
:1034500010B50D480BF0A4FC0B49083948B1012008
:1034600008704FF0E021C1F80002BDE81040FFF7FE
:1034700031BF487A012801D1FFF7B6FDBDE8104001
:1034800001480BF0A4BC0000340000200248407A40
:10349000002800D0012070472C000020F8B5154D01
:1034A000A87A002825D14FF080441820C4F80803DA
:1034B0000126A6614FF42070ADF80000BDF80000B1
:1034C000411EADF80010F9D20027C4F80C71C4F801
:1034D0001071084808300BF076FC2F70FFF784FD60
:1034E0006661687900F07F00C4F838051820C4F8D8
:1034F0000403F8BD2C00002001490120087070472A
:10350000A80300204FF08040D0F8000118B903480C
:103510000078002800D0012070470000A803002098
:103520004FF08040012141600021C0F800110148A6
:1035300001707047A80300200248006800F00300F3
:10354000704700001C04004010B531B1012907D0BC
:103550004FF4427105A000F00FF8D0F8140401E018
:10356000D0F8080400F0010010BD00006E72665F24
:10357000636C6F636B2E6800024A526802B1104799
:10358000FEE7000048000020064810B50021016059
:103590000121016008460BF0D8FBBDE81040012076
:1035A0000BF0C6BBFC1F0040074810B5012141606D
:1035B000891EC0F808130C200BF0C7FBBDE81040B3
:1035C0000C200BF0B5BB000000C00040FEB5104A57
:1035D0005568E5B1002203466E460A2403E0B0FBBD
:1035E000F4F0521CD2B20028F9D1B0540AE000BF66
:1035F000B3FBF4F004FB1030B3FBF4F3521ED2B271
:103600003030B054002AF3D13046A847FEBDFEE763
:103610004800002070B5174C06460D46607810B182
:103620004FF0FF3070BD06B9134E62602570FFF792
:10363000ABFFFFF7B9FF3046FFF7B4FE0600F1D14C
:10364000FEF7B6FFFFF72AFF0BF0CCFA28460BF087
:103650006FFB0120002D09DB05F01F0100FA01F1CD
:103660006A09920002F1E022C2F80011607030464F
:1036700070BD0000480000206CED0000014840785B
:103680007047000048000020074890F9000000281B
:1036900009DB00F01F02012191404009800000F188
:1036A000E020C0F800127047480000202DE9F041EA
:1036B00001264FF0E02231034FF000084046C2F8E7
:1036C0008011BFF34F8FBFF36F8F164CC4F800010A
:1036D0000C200BF058FB144D2868C04340F3001732
:1036E000286840F010002860C4F8046326607F1C3E
:1036F00002E000BF00F08CF8D4F800010028F9D0F7
:103700001FB9286820F01000286008480568666026
:10371000C4F80863C4F800810C200BF034FB284681
:10372000BDE8F08100C0004010ED00E008C5004099
:1037300010B5024605200C4904E000BF01EBC003B0
:103740001B7933B1401EC0B2F8D24B216920FFF77C
:103750003DFF41F8302001EBC00100224A718A711F
:1037600001220A7110BD0000B40E002010B505281A
:1037700001D35A2106E00A4901EBC0000179012971
:1037800003D05B216920FFF721FF41798279491C31
:10379000C9B28A4200D04171BDE81040FFF774BF42
:1037A000B40E002070B505250E4E0F4C16E02178A2
:1037B00006EBC1000279012A08D1427983799A4245
:1037C00004D04279827156F8310080472078401C3D
:1037D000C0B22070052801D3002020706D1EEDB20C
:1037E000E5D270BDB40E0020A903002000B50BF097
:1037F00057FB28B90BF04AFB10B90BF011FB08B1CD
:10380000014800BD014800BD00E701400C05004033
:1038100010B50BF00FFBE0B1EFF31080D8B1002131
:1038200072B6124802680368C2F3001243F0100334
:1038300003604FF0E023D3F80042D3F804321C4376
:1038400000D040BF20BF00BF00BF00BF00BF22B1FB
:1038500007E020BF10BD0121E2E7026822F010025C
:1038600002600029F6D062B610BD000010ED00E045
:1038700010B580EA01040346A40707D015E0002A2A
:1038800015D011F8014B03F8014B521E9C07F6D1DD
:1038900002E010C9121F10C3042AFAD205E000BFCB
:1038A00011F8014B03F8014B521E002AF8D110BD4C
:1038B00070B50E4C6078002817D1207800250128BB
:1038C00006D102202070A06810B1A0688047A560D2
:1038D0002078032809D12570A068002805D06068E9
:1038E00040698047A0688047A56070BD50000020F7
:1038F00010B5084C2078022802D02078032802D185
:1039000060688068804700206070BDE81040FFF765
:10391000CFBF00005000002038B50446052804D36E
:103920004FF489716820FFF751FEFFF7C1FF0E4D7C
:10393000012068702878022815D16868C16820467F
:1039400088470A4901EB44025278824201D20120A1
:1039500001E011F814008DF800008DF8014068684E
:1039600001686846884738BD50000020F6190020DD
:1039700005490A78022A04D00A78032A01D00020D7
:1039800070474968096908475000002010B558B1D0
:1039900008490A78022A02D00A78032A09D149681C
:1039A0004968BDE81040084740F227116820FFF73A
:1039B0000DFE10BD5000002005480178022904D0FA
:1039C0000178032901D000207047406880690047D2
:1039D000500000201FB5184C6079032803D200BFA7
:1039E0004FF0030100E001468DF8011001D24FF0C5
:1039F00003008DF80000E078ADF80400A078ADF881
:103A00000200684609F04EF808B19B2110E0A0685A
:103A1000029002A809F05EF808B19F2108E007486B
:103A20000068039003A80DF0E0FF002803D0A32155
:103A3000032000F0A7F81FBD68000020EC3B000049
:103A400010B528B114220449FFF712FF002010BD61
:103A50006FF0150010BD00001E3C000010B56FF0A7
:103A60002C0418BBC9B14AB1114B012909D0022954
:103A70000AD003290BD0042918D10CE06FF01500EF
:103A800010BD1078187208E01078587205E01068C0
:103A9000C3F80A0001E010681861054901220831E5
:103AA00000200BF033FAB0F5803FE9DB204610BD73
:103AB0006000002038B50C46C0B1BCB1FFF738FE3D
:103AC0000C4D002205F10801287020460BF01EFA6B
:103AD0000EF0FDFB0021287809F042FB68788DF894
:103AE000000068460DF06FFF002038BD6FF0150034
:103AF00038BD00006000002070B504000BD0FFF757
:103B0000BDFD4FF0FF3520B1FFF79CFCB0F5FA7F0B
:103B100004D9284670BD6FF0150070BD0022144B0B
:103B2000114600BF33F82150854203D303EB8100D7
:103B3000827803E0491CC9B20C29F3D30D484270C6
:103B400044600D4800F0A8F9EFF3108472B60B48FA
:103B50006FF00C0100F0AAFC094800F057FF18B103
:103B6000B221032000F00EF804B962B6002070BD47
:103B7000EE3B000060000020D539000000E000406E
:103B8000353C00000EB572B6154A5568D5B1002215
:103B900003466E460A2403E0B0FBF4F0521CD2B296
:103BA0000028F9D1B05409E0B3FBF4F004FB103065
:103BB000B3FBF4F3521ED2B23030B054002AF3D12A
:103BC0003046A847BFF34F8F06480168064A01F404
:103BD000E06111430160BFF34F8F00BFFDE70000BC
:103BE000600000200CED00E00400FA050100010077
:103BF0000B0002000A00050009000A00080014007A
:103C000007001E000600320005004B00040064009F
:103C1000030096000200FA000100F4010000D44302
:103C2000B5CF6322E9D4ED8A24D04CA1F7B1A42604
:103C300085750000F8B5124C0026256811E0009843
:103C4000022802D003280CD106E0206810B1002021
:103C5000266005E026210CE0206868B1012026607E
:103C6000A847684600F0BAFC0028E8D0052805D02F
:103C700033210420FFF786FF2B21FAE7F8BD00006F
:103C80007400002070B50C006FF0150504D00CF026
:103C90006BFA00F0D5FE08B1284670BD01480460FB
:103CA000002070BD7400002070B51C006FF0150579
:103CB00002D000F037FE08B1284670BD014804600C
:103CC000002070BD7400002070B5174D064628789E
:103CD00048B1AC78691CA41C22463046FFF7C8FDE9
:103CE0000020287012E0114808F0DEFF00281AD0EA
:103CF0000A213E2000F01CF818B90C48007814285E
:103D00000BD00A4930460BF010FA044654B1B17892
:103D10003078BDE8704000F00BB8044930460BF035
:103D200041FCF2E7002070BDFC0F0020DC0E0020FB
:103D300070B50C46054600F04BF8002802D03E2D29
:103D400001D0012070BD122C06D10648017802294D
:103D500002D040780028F5D02046BDE8704000F041
:103D600053B80000AA0300200149487070470000C2
:103D7000AA03002070B50A7882703AB3012A25D8C8
:103D80001323037000230AE001EB430400EB430517
:103D9000A678EE706488240A5B1C2C71DBB2934217
:103DA000F2D300230BE000BF01EB430500EB43041B
:103DB0002E796671AD882D0A5B1CA571DBB293422A
:103DC000F2D3012101EB8200C0B270BD002070BDB2
:103DD00001210C4A40280CD2202803D8401E8140E3
:103DE000106802E0213881405068014207D100206C
:103DF0007047FF2803D0403881409068F5E70120E4
:103E0000704700007C0000200121401E81400448D2
:103E1000C068014201D001207047002070470000B7
:103E20007C00002001490068C86070477C000020C9
:103E300004490268406842F48C220A60024A104336
:103E4000486070477C000020F80740020149006884
:103E5000886070477C00002005484FF0FF3101600A
:103E6000C90C4160002181601F21C16070470000C2
:103E70007C00002010B5FFF7EFFF0020FFF774FF74
:103E80000DF050FE04460348006800B1804720460C
:103E900010BD00008C000020014908607047000040
:103EA0008C00002002210180418000210171D42179
:103EB00041714BF24351C18001498160002070473C
:103EC000CF6322E92DE9F041074611B1002060B926
:103ED00001E00120FBE7012907D0002000281FD0C6
:103EE00000241248012902D002E00120F6E70478FC
:103EF00000234FF6FF7600EB810C10F801E008E09C
:103F00001819DCF80C5080B255F8205025B15B1C14
:103F10009BB29E45F4D830463880B04202D1002092
:103F2000BDE8F081BDE8F04100F0B4B80011002018
:103F300010B5022804D340F253111720FFF722FED8
:103F40000149085C10BD000000110020F8B50546CD
:103F5000C818FF2802D940F221110FE09A4202D975
:103F60004FF491710AE0C4B2009555B10026E81CE7
:103F700020F00300A84206D04FF494711720FFF7F9
:103F800001FE0126F3E7124F68463B707970314617
:103F900000F0C6F800218C460098C01C20F00300F9
:103FA00000905EB907EB8103D860002004E0DA6876
:103FB00042F820C0401CC0B2A042F8D30098491C6F
:103FC00000EB8400C9B200900229E5D3401BF8BD84
:103FD0000011002070B504460CF021F908B1102042
:103FE00070BD257800F04EF802460C48618800EB61
:103FF00085000EE0C36853F8213043B14A1C62804B
:10400000A180C06850F82100A060002070BD491C4C
:1040100089B29142EED36180052070BD001100206D
:104020002DE9F0410746A0F57F400C4643F2020619
:10403000FF3820D0022C02D30720BDE8F08138469B
:1040400000F05EF8050016D00C48294650F82420F0
:10405000384690470A48002100EB8406F06840F893
:104060002710204600F08EF80246294670680BF0B3
:10407000F7FF0020E1E73046DFE70000A441000041
:10408000001100200249087849780844C0B27047FE
:10409000001100202DE9F04190460E4607460CF035
:1040A00019F840B1144800EB8604E06850F8270086
:1040B00018B1F42113E0F32111E06068002819D051
:1040C000304600F05FF8014660680BF07BFF0500AA
:1040D0000FD0E068022E40F8275003D3FF211720AD
:1040E000FFF750FD05484246294650F8263038462D
:1040F00098472846BDE8F081001100209C4100004F
:1041000070B50C4605460BF0E5FF002805D00348C6
:1041100000EB8400C06850F8250070BD001100203D
:104120002DE9F843164F8846054600242868C01C30
:1041300020F003002860204600F024F8395D414358
:10414000B8F1000F01D0002000E02868009018B1FD
:1041500000261EB1002002E00126FAE768460BF0B7
:104160005EFF1EB907EB8401009A4A602968641C4F
:104170000844E4B22860022CD8D3BDE8F8830000DC
:1041800000110020034931F810004FF6FC71C01CEB
:10419000084070479841000090012802DD1301009B
:1041A000AD11010013140100C31101002DE9FF4FEF
:1041B000264C804681B020689A46934658B1027AD0
:1041C000424503D9416851F8280040B143F202004A
:1041D00005B0BDE8F08FA5211820FFF7D3FC1946E4
:1041E00002980BF098FF87B258460E990BF08AFFA1
:1041F00086B2B819001D85B22068A146294600681C
:104200000BF0E0FE04001FD0658026800E98251D6F
:10421000009031465A46012328460BF00EFE2088B6
:10422000394628440123029ACDF800A00BF005FE80
:104230002088411928460BF036FED9F80000416865
:10424000002041F82840C3E70420C1E79000002087
:1042500070B5144C23688BB1197A814212D95A680F
:1042600052F8201071B1002542F820504A88186891
:104270000BF0F6FE216800200A7A0CE0C821182015
:10428000FFF780FC43F2020070BD4B6853F820300A
:1042900033B9401CC0B28242F7D808680BF0D5FE93
:1042A000002070BD900000202DE9F0410D46040073
:1042B00090464FF0000609D00027E01C20F00300D4
:1042C000A04205D086211820FFF75CFC0127F4E707
:1042D000CDB1114600200BF0A2FE0C3000EB85069C
:1042E0008FB90A4F04F10C00AA003C60257260608F
:1042F00000EB85002060002160680AF0EBFD41467C
:1043000038680BF08CFE3046BDE8F081900000204C
:1043100070B5084D286800280AD0002404E0204623
:10432000FFF796FF641CE4B22868007AA042F6D832
:1043300070BD000090000020094910B502460968D0
:10434000002049B10B7A934205D9496851F82210EF
:10435000002900D0081D10BDEE211820FFF712FC27
:10436000900000200A4910B502460968002059B1A2
:104370000B7A934207D9496851F82210002902D0DC
:1043800031F8040B084410BDFC211820FFF7FAFB9C
:1043900090000020094910B507480860084B11201B
:1043A00003EBC0040022C4F81025C4F81425401CF7
:1043B000C0B21428F4D310BD0000FEFF08F5014080
:1043C00000F0014070B520240021012320FA01F201
:1043D000D20720D04AB2002A10DB00BF4FEA5216A3
:1043E0004FEA860602F01F0506F1E02603FA05F5FE
:1043F000C6F88051BFF34F8FBFF36F8F0BDB02F016
:104400001F054FEA52124FEA820202F1E02203FA3C
:1044100005F5C2F8805201F10101A142D6D370BD69
:1044200070B541004FF0000301D51A490B608404B8
:104430004FF001014FF0FF3207D5174C6160C4F80F
:104440000032C4F80823154C2360C0F38034C0F355
:10445000C035AC4203D072211B20FFF793FB10F450
:10446000404F12D00E484160C0F808230D488160CB
:10447000C0F80032C0F808230B4C2360251D2960CA
:104480008160C0F8082323602960BDE87040FFF711
:1044900081BF000004E5014000D0004004D5004089
:1044A00000E0004000F0004000F5004070B50B4C0B
:1044B0000D462060FFF7B4FF2068FFF783FF00F090
:1044C00079F800F08DFBFFF765FF0BF071FE2846D1
:1044D00000F0AAF8BDE8704000F0ACBA94000020EB
:1044E0002DE9FC5F2F4E83463068019001272E484E
:1044F0000AF056FCDFF8B08020B9002708F101006F
:104500000AF065FC294C00254FF00309012060608A
:10451000C4F80051C4F80451C6F800B02060DFF8B8
:1045200090A017E0DAF80000C00613D50E200BF0BB
:10453000FBFDEFF31080009072B6C4F80493D4F83A
:10454000000120B9D4F8040108B9FFF761F9009817
:1045500000B962B6D4F8000118B9D4F804010028F3
:10456000E0D0D4F804010028D0D137B101983060F0
:1045700008F101000AF014FC11E008F101000AF052
:104580000FFC0028BAD1C4F80893C4F80451C4F849
:1045900000510E200BF0C8FD03480AF018FC002063
:1045A000BDE8FC9F04E50040AC03002000E00040B3
:1045B00010ED00E010B508480AF005FC08B1242110
:1045C00006E00548401C0AF0FEFB002803D0282125
:1045D0001D20FFF7D7FA10BDAC03002070B51149BC
:1045E0000A68EAB100231D4601244A68521C4A6049
:1045F000092A00D34D600E7904FA06F20E681642BD
:104600000BD0EFF3108372B60C6894430C6003B9BF
:1046100062B649680160002070BD5B1C092BE4D3C1
:10462000052070BD98000020024800210160416013
:104630007047000098000020012181400248006876
:10464000084000D00120704798000020EFF310814F
:1046500072B601228240044803681A4302600029AE
:1046600000D162B6704700009800002070B5044683
:104670000AF0B8FB05460AF0BFFB05430AF0C6FB8B
:1046800005430AF00DFC284305D04FF08042D2F8D4
:10469000080108B1082070BD0C480D4B016834B109
:1046A0001A7902F0010211430160002070BD01F08F
:1046B00001015960036823F001030360D2F8082167
:1046C000002AF2D002680A430260E3E710050040C6
:1046D000A000002010B5FFF7B9FF03480078BDE83F
:1046E0001040FFF743B80000A000002010B50446BA
:1046F0000AF08BFA0F4A90605078012802D04FF4EC
:10470000B27113E00C49012008700020C8720881C2
:1047100004204C6088720948C8600220507090786C
:104720000BF011FD002804D14FF4B6711F20FFF7E4
:1047300029FA10BDA000002014110020105C0C000C
:104740002DE9F041054617460C460020FFF78EFF85
:1047500006001AD10E4A012010600E480168002997
:10476000FCD0002107E023682B600368002BFCD0FD
:10477000491C241D2D1DB942F5D30021116001688B
:104780000029FCD00120FFF771FF3046BDE8F08121
:1047900004E5014000E4014070B5324CA27890423B
:1047A00002D040F20B114CE02E482F4D08294078E2
:1047B00055D2DFE801F0540423325454543E022809
:1047C00002D040F20F113CE0032060702548E178F0
:1047D00006250526C068012901D019B10AE00BF0B1
:1047E000B4FC03E0D4E90412FFF7AAFF08B1657036
:1047F00000E06670BDE87040FDF7D4BD0AF005FA30
:104800000146A068FCF73CFEA84202D2A169022939
:104810000BD30320FFF75EFF1DE00AF0F6F9014617
:10482000A068FCF72DFEA842F3D2BDE8704000F06E
:104830001DB802280AD0052806D0062806D040F266
:1048400053111F20FFF79EF9022000E00320FFF71D
:1048500041FF04206070BDE8704000F033B840F2C2
:104860005D11EEE7A0000020105C0C0070B5134A4B
:1048700011495378022B01D0FD2119E0884201D360
:10488000FE2115E094690E4B012C03D847F23055F8
:10489000A84201DD03259D72641C081A9461D8604A
:1048A000074990780BF04FFC002804D14FF4837136
:1048B0001F20FFF767F970BD105C0C00A0000020FE
:1048C0001411002010B5064CA078FDF71FFC10B1A4
:1048D0000020607010BD9D211F20FFF753F90000DC
:1048E000A000002010B50D4C607838B90220FFF709
:1048F000A3FE18B90320FFF79FFE08B1112010BDD9
:104900000748FDF72DFDA070202804D0012060701D
:104910000020A06110BD032010BD0000A0000020F9
:10492000994700002DE9F047DFF8D090054614467E
:1049300099F800000E46FF280AD034B14FF0805895
:10494000D8F810008008A04207D20920BDE8F087FF
:1049500040F2A3111F20FFF715F905EB8407284645
:104960003F1F0BF061FCE8B9AF421BD3D8F814002D
:10497000D8F810104843854205D2874203D245EA51
:104980000600800701D01020E0E706EB8400001F3E
:10499000B04201D2012700E0002730460BF044FC72
:1049A00000B90FB10F20D1E71548164900688842B9
:1049B00006D0224631462846BDE8F047FFF7C0BE84
:1049C000FFF790FF0028C1D1C9F80C50C9E9046471
:1049D000002189F803100AF02DFA08B10A4801E015
:1049E0004AF6EC1060434FF47A7100F2E730B0FB06
:1049F000F1F01830FFF77AFE0020A7E7A0000020B2
:104A000078000020BEBAFECA442A050010B5084C42
:104A1000617809B10F2010BDFEF78AFE2070FF28D3
:104A200001D0002010BD72211F20FFF7ABF800005D
:104A3000A00000200149002048707047A00000201D
:104A400070B50546124813490068884204D02846CC
:104A5000BDE870400BF079BB0F4C2078FF280BD0DD
:104A6000FFF740FF002811D10120E560E0700AF057
:104A7000E1F930B1094805E040F2E7111F20FFF7E6
:104A800081F807481830FFF731FE002070BD0000A4
:104A900078000020BEBAFECAA0000020645E0100BB
:104AA000A85B0100094A0221116009490B68002B2B
:104AB000FCD0064B1B1D186008680028FCD00020A5
:104AC000106008680028FCD07047000004E5014031
:104AD00000E401400649D1F80001012807D105484A
:104AE00000680022C0B2C1F8002100F0E1B87047B0
:104AF00000D0004008D500400149012008607047FF
:104B000004D5004010B50648D0F800110029FBD0AC
:104B1000FFF7E0FFBDE810400D200BF02BBB0000BD
:104B200000D0004070B50D200BF031FB084C002088
:104B3000C4F800010125C4F804530D200BF01AFB42
:104B400025604FF0E0216014C1F8000170BD000045
:104B500000D0004010B50D200BF019FB05480121D5
:104B600041600021C0F80011BDE810400D200BF09D
:104B700001BB000000D0004010B505480AF010F954
:104B8000002803D1BDE81040FFF7CCBF10BD0000E6
:104B9000BC0000202DE9F04115460E4604460027D2
:104BA0000BF020FBA84215D3002341200FE000BFEB
:104BB00094F84220A25CF25494F84210491CB1FBD4
:104BC000F0F200FB12115B1C84F84210DBB2AB4226
:104BD000EED30127FFF7D0FF3846BDE8F081000093
:104BE0000E4910B5002081F8420081F841004331A0
:104BF00081F8420081F84100433181F8420081F898
:104C0000410007480AF0DFF80548401C0AF0DBF8CD
:104C1000FFF772FFBDE81040FFF7AEBF001A00209B
:104C2000BC00002001480BF0DDBA0000431A002050
:104C30000A4601460148FFF7ADBF0000431A0020B5
:104C400001480BF0CFBA0000001A00200A460146C6
:104C50000148FFF79FBF0000001A002070B50C4606
:104C60000646412903D9FB212320FEF78BFF0E487E
:104C70000068103840B20BF0A6FAC5B20D200BF058
:104C8000A2FAC0B2854201D8012504E0002502E065
:104C90000DB1FFF737FF224631460448FFF77AFF90
:104CA0000028F5D070BD000004ED00E0001A0020DF
:104CB0002DE9F0411F4F0646002500BF57F825405B
:104CC00020460BF09BFA00B36D1CEDB2032DF5D31B
:104CD00019480BF093FA00282AD0174843380BF0F4
:104CE0008DFA002824D0144843300BF087FA0028AE
:104CF0001ED0FFF72FFF0F48001F0AF051F8233096
:104D000010D0B3212320FEF73DFF94F8410041214C
:104D1000265414F8410F401CB0FBF1F201FB1200C5
:104D20002070D5E7BDE8F0410248001F0AF04FB8F7
:104D3000BDE8F081C0000020431A002005498A8C9C
:104D4000824218BF7047002081F822004FF6FF70A2
:104D500088847047901900200648074A818C528841
:104D6000914205D190F8220000281CBF0020704716
:104D700001207047901900209803002001494880C5
:104D800070470000980300200848094A818C528827
:104D9000914209D14FF6FF71818410F8221F19B199
:104DA00000210170012070470020704790190020F9
:104DB00098030020074901F1220091F82220012ADE
:104DC00004BF0020704701220270034800888884D5
:104DD0001046704790190020980300200749084B9F
:104DE0008A8C5B889A4206D191F82220002A1EBF45
:104DF00001600120704700207047000090190020DA
:104E00009803002009498A8CA2F57F43FF3B03D019
:104E1000002101600846704791F822200349012AC9
:104E20001ABF016001200020704700009019002087
:104E300001490880704700009803002005490020C0
:104E400081F822004FF6FF7088840349088048806B
:104E500070470000901900209803002005490020A9
:104E600081F822004FF6FF7088840349088048804B
:104E70007047000090190020980300200D4B69B185
:104E8000012904BF9978814210D1D3F80F00106036
:104E9000B3F8130090804FF001007047587828B1A4
:104EA000D3F803001060B3F80700F3E74FF00000F9
:104EB00070470000AE030020074A29B1012904BF52
:104EC0009178814202D004E0507810B14FF0010097
:104ED00070474FF000007047AE0300200C4A10B13D
:104EE000012808D011E0507878B1D2F803000860AA
:104EF000B2F8070006E0107838B1D2F8090008606F
:104F0000B2F80D0088800120704700207047000033
:104F1000AE0300200149FF2088707047AE030020D7
:104F20000A4A012350B1012818BF7047137008685E
:104F3000C2F809008888A2F80D007047537008680D
:104F4000C2F803008888A2F807007047AE0300206B
:104F5000064910B1012803D006E0487810B903E0F3
:104F6000087808B10120704700207047AE03002088
:104F70000149012048717047CC0000200149487464
:104F8000704700006A0B00200148C078704700009D
:104F9000CC0000200148007970470000CC000020C0
:104FA000104930B44A7C002A19BF0A7C002A00202C
:104FB00030BC08BF70474FF000024FF01F0C0A4B87
:104FC0000A74427080F800C0D3F85A41D3F85E5199
:104FD000446085600C7C002CF2D130BC4FF00100A5
:104FE000704700006A0B0020180A002070B5084CBA
:104FF00006460D46207818B1AB212720FEF7C2FDEA
:10500000012104480BF0E2FC2672256370BD00000C
:10501000CC000020480B002001490120C8717047D6
:10502000CC0000202DE9F043824D85B02C78DDF8CE
:1050300030C0002C75D1002A1CBF002BBCF1000F22
:105040006FD0C5F820C0C5E90F014FF00000C5E9D9
:105050000623E871A871E870A87028716871764F0E
:10506000E8812882786800F17806044608F084FE1A
:1050700008F028FA94F96A0008F016FF04F1160007
:1050800009F0F4F904F1120009F0E4F9F07E09F0F6
:105090003FFA387841F64C58002846D00420FEF7F5
:1050A0003BFC6068404528BF962003D2012009F0F0
:1050B00087F94D2008F0B2FD786890F8800100284B
:1050C00018BF08F0A1FD94F86710012008F0BAFBA2
:1050D000002804BF05B0BDE8F083387800280CBF75
:1050E0000320012008F0F8FD544890E80E108DE8E8
:1050F0000E1000690490387800280CBF50485148C1
:105100000490684608F004FD2088FFF72BF96863D7
:105110002088FFF711F9A86394F8730068BB1CE0BE
:10512000FFE7D3212720FEF72DFD0320FEF7F4FB38
:105130006068404528BF962003D2012009F040F95D
:105140004D2008F06BFD94F86610002008F07AFB03
:105150000028C2D105B0BDE8F083E06E68B1708D63
:105160003188884209D1B4F8701001220844708552
:1051700094F87200E16EFDF76FFA06F160013248B3
:1051800091E80E1000F5847888E80E10316FC0F8B1
:105190002111716FC0F82511FF20A87294F86710D3
:1051A00096F81290B4F83880608F08291CD00BF064
:1051B0006AF900BFB9F1000F04BF001D80B280453D
:1051C00038BF4046C0B2B17C002918BF0421084452
:1051D000C0B26872B4F85010091D814208D24FF471
:1051E000B5712720FEF7CEFC04210BF04CF9E1E766
:1051F000387800284FF0010014D000F04BFB134822
:105200000068032818BF0B280FD0114D28460DF059
:10521000FDF83088688020882880F07E287105B0ED
:10522000BDE8F08300F0C4FBE9E74FF4BD7127202F
:10523000FEF7A8FCCC000020080100207C5C0000E8
:10524000B9C100006D900000180A00205015004000
:105250006A0B00202DE9F04706004748474D40689B
:1052600000F17804A86A90F8019018BF012E03D1CC
:10527000A96B09F0F7FE6870687800274FF0010805
:1052800050B1012830D0022856D0032868D04FF4FE
:105290006C712720FEF776FC012E12D0E86A0028F8
:1052A00045D0A989CA1CA96AFEF7E2FAE86AA86291
:1052B00001224946A86B0AF0A9FB022E08BFBDE8EF
:1052C000F087D4E91610491C40F10000C4E916101B
:1052D000E079012801D1E77101E084F80780287A9C
:1052E000BDE8F047FEF742BA012E11D0E86AF0B1EE
:1052F000A989CA1CA96AFEF7BBFAE86AA86200225B
:105300004946A86B0AF082FB022E08BFBDE8F08771
:10531000D4E91602411C42F10000C4E91610E079FC
:1053200001280CBFE77184F80780BDE8F08740F2E0
:10533000F7312720FEF726FC012E06D0A86B0AF0D5
:105340003AFE022E08BFBDE8F087D4E91610491CCA
:1053500040F10000C4E91610E0790128BDD1BAE798
:10536000012E08BFBDE8F087A86B0AF024FE287A5A
:10537000BDE8F047FEF7FAB908010020CC00002094
:1053800002480078002818BF0C207047CC0000208D
:10539000114810B5017859B100F13C0100780A7844
:1053A00052B1022810D040F297112720FEF7EAFBF5
:1053B000BDE8104000F012BA012808BF10BD40F24D
:1053C00093112720FEF7DEFB4868D0F81401BDE8F2
:1053D000104008F0A9BB0000CC00002070B5264C9E
:1053E0000546002908BF012D06D1E07800F1010033
:1053F000C0B2E07001283CD8E169284688470028FF
:1054000037D0607948B1012D07D1206B4178002950
:1054100004BF007810F0100F2BD0A07948BB1748BC
:105420000178002908BF012D04D001B115B14FF05A
:10543000000070BD1248017811F0100F06D1206BEA
:10544000007810F0100F08BF012001D04FF00000CD
:10545000E26A32B9A28922B111F0100F08BF01210E
:1054600001D04FF00001E28940EA0200084308BF82
:1054700070BD012070BD0000CC000020080100209C
:10548000DE0000202DE9F35FDFF8A4820027A8F1F9
:105490003C04D8F804003D4600F1780A2078022840
:1054A00004D040F249412720FEF76CFB207C10F02D
:1054B000400F07D14020A26900219047208A40F088
:1054C0004000208200999B48002900F0008141792A
:1054D000491C41719AF8120008F074F808F056F867
:1054E0004FF0010998B99AF8120080B1A06A41788A
:1054F00069B100789AF80710C0F3C000884206D15D
:1055000084F8029002B0BDE8F05F00F067B9A06ACD
:105510004178A181002908BFE76203D0A06B0AF09F
:1055200003FDE062208A40F480702082E770D8F8A2
:10553000046006F1780B96F8240001281DD108F0CC
:1055400045FF594630460BF077F8B0B198F80000A7
:105550000028D8F804000CBF00F5A67000F5017013
:10556000318841809BF8081001719BF80910417146
:1055700080F80090207AFEF7F9F8A06A9AF80610F1
:105580000078C0F38000884249D0D8F8040000F1C8
:10559000780690F87D0000283DD002280ED1606B7F
:1055A0000AF000FA002855D0D6E91410491C40F141
:1055B0000000C6E91410207AFEF7D8F8777198F841
:1055C000000000281CBF3079002809D03771E2891B
:1055D000394642F01002E281A2694FF01000904774
:1055E000F07890B1F770FFF7CFFB90B3E289082015
:1055F00042F00802E281A26900219047D6E9141026
:10560000491C40F10000C6E91410B07901280CBF14
:10561000B77186F80690208A40F480602082A16AE3
:105620009AF807300878C0F3C0029A4248D1D8F8F7
:10563000042000F0030002F17806012818BF0228B8
:1056400027D003281CBFA07940F004000CD0A07123
:1056500036E004E040F24B312720FEF793FA40F2A7
:1056600063312720FEF78EFA86F80290228A484698
:1056700042F400622282E28942F00102E281A269E0
:105680009047F079012801D1F77119E086F8079069
:1056900016E04878B8B1218A41F400612182E16ABC
:1056A00071B1FB2884BFA07940F01000CFD8E07919
:1056B000002808BF4D4603D02020A2690021904752
:1056C0000198B8B911E0F0790128DFD1DCE78179E0
:1056D000491C81719AF81200002818BF07F06CFF6E
:1056E000208A40F400702082EAE701200099FFF749
:1056F00075FE48B1002D1CBF0020FFF7ABFD02B0C6
:10570000BDE8F05F00F06AB8002D1CBF0120FFF774
:10571000A1FD002000F04CF9002D04BF02B0BDE84F
:10572000F09F022002B0BDE8F05FFFF793BD0000DC
:10573000080100206A0B00202DE9F047264E814623
:10574000A6F13C057068884600F1780428780128A5
:1057500004D040F206412720FEF714FAA078012772
:1057600060B10021A170EA89042042F00402EA81BC
:10577000AA6990473078002818BF2771696A032604
:10578000087836EA00000DD1607998B9EA890220DC
:1057900042F00202EA81AA699047686A007836EA14
:1057A000000007D0686A407800280EBF67710220A9
:1057B000607100E0667138EA090004D00121002020
:1057C000FFF70CFE18B1BDE8F04700F007B8BDE8E0
:1057D000F047002000F05EB80801002010B507F087
:1057E000BFFF07F06FFE1848446894F824000128B2
:1057F00008BF08F0EBFD94F8730038B9E06E28B1EB
:10580000002294F872001146FCF726FF0F4C00218D
:10581000A269208A9047226AA179A07890470C4912
:10582000487C70B1A1F5A970D0F85221D0F856315A
:10583000C0F85A21C0F85E3101200874207AFDF7C3
:1058400095FF0020207010BD08010020CC00002032
:105850006A0B0020084810B50078022804D04FF4E5
:10586000DC712720FEF78EF904490120C871BDE8DC
:105870001040FFF7B3BF0000CC0000206A0B0020EF
:1058800003480078002808BF7047FFF7A7BF000053
:10589000CC0000202DE9F047DFF804810646D8F857
:1058A000044004F1780794F86710608F94F88A90A8
:1058B000258F082911D00AF0E6FD00BFB9F1000FCD
:1058C00004BF001D80B2854238BF284600F0FF09A2
:1058D000344D286BA86276B903E004210AF0D3FDA9
:1058E000ECE7687AA97A884205D194F8670094F8C1
:1058F0006610884204D0687A94F8671008F0BEFDFC
:10590000B87C48B3284808F0D5FA98F80000002879
:105910000CBF0120002080F0010124480176D7E966
:105920001612C0E90412A0F58472A96A07F0BAFD44
:1059300094F86700012808BF002208D0022808BF99
:10594000012204D040F2B3310620FEF71BF949468C
:10595000012007F0D5FD04E0A86A08F0ABFA07F0D3
:10596000B1FD002E04BF002008F012F941F64C51A1
:10597000606894F8663088424FF001024FF00001F1
:1059800034BF0120002008F075FC94F824000128A1
:1059900008BF08F027FD02202870BDE8F08700004E
:1059A00008010020CC000020180A0020200B002055
:1059B0002DE9F04FDFF8B4820200A8F13C04D8F8DA
:1059C0000450A07A83B095F8661005F17807A8F125
:1059D000180B01BF627A824295F867208A4201D093
:1059E00008F04CFD7879DFF888A24FF00009012615
:1059F00050B101286DD002286CD003286BD040F242
:105A000062212720FEF7BEF8D8F8040000F17801E3
:105A100090F88430242B1CBF497B242908D04FF0F8
:105A200002021F2B18BF202B1CD0222933D053E099
:105A300098F80010002990F866100AD090F8A60196
:105A400000284ED0012918BF012838D04FF002019C
:105A500047E090F82601002843D0012918BF01280B
:105A60002DD0F3E7222916D098F8001081B390F8D2
:105A7000661090F8C00110F0010F18BF304604D036
:105A8000012918BF01281AD0E0E710F0020F18BF53
:105A90001046F5D125E098F80010C9B190F86610CD
:105AA00090F8C03190F85F0003EA000010F0010F99
:105AB00018BF304606D0012918BF0128C6D14FF0C3
:105AC00001010EE010F0020F18BF1046F3D108E0FC
:105AD00002E029E03BE04AE090F86610042908BFA4
